{
	"contracts/artifacts/Calculator.sol": {
		"Calculator": {
			"abi": [
				{
					"inputs": [],
					"name": "decrement",
					"outputs": [
						{
							"internalType": "uint256",
							"name": "",
							"type": "uint256"
						}
					],
					"stateMutability": "nonpayable",
					"type": "function"
				},
				{
					"inputs": [],
					"name": "getValue",
					"outputs": [
						{
							"internalType": "uint256",
							"name": "",
							"type": "uint256"
						}
					],
					"stateMutability": "view",
					"type": "function"
				},
				{
					"inputs": [],
					"name": "increment",
					"outputs": [
						{
							"internalType": "uint256",
							"name": "",
							"type": "uint256"
						}
					],
					"stateMutability": "nonpayable",
					"type": "function"
				},
				{
					"inputs": [
						{
							"internalType": "uint256",
							"name": "_value",
							"type": "uint256"
						}
					],
					"name": "setValue",
					"outputs": [],
					"stateMutability": "nonpayable",
					"type": "function"
				},
				{
					"inputs": [],
					"name": "square",
					"outputs": [
						{
							"internalType": "uint256",
							"name": "",
							"type": "uint256"
						}
					],
					"stateMutability": "view",
					"type": "function"
				}
			],
			"devdoc": {
				"kind": "dev",
				"methods": {},
				"version": 1
			},
			"evm": {
				"assembly": "    /* \"contracts/artifacts/Calculator.sol\":57:534  contract Calculator {... */\n  mstore(0x40, 0x80)\n  callvalue\n  dup1\n  iszero\n  tag_1\n  jumpi\n  0x00\n  dup1\n  revert\ntag_1:\n  pop\n  dataSize(sub_0)\n  dup1\n  dataOffset(sub_0)\n  0x00\n  codecopy\n  0x00\n  return\nstop\n\nsub_0: assembly {\n        /* \"contracts/artifacts/Calculator.sol\":57:534  contract Calculator {... */\n      mstore(0x40, 0x80)\n      callvalue\n      dup1\n      iszero\n      tag_1\n      jumpi\n      0x00\n      dup1\n      revert\n    tag_1:\n      pop\n      jumpi(tag_2, lt(calldatasize, 0x04))\n      shr(0xe0, calldataload(0x00))\n      dup1\n      0x20965255\n      eq\n      tag_3\n      jumpi\n      dup1\n      0x2baeceb7\n      eq\n      tag_4\n      jumpi\n      dup1\n      0x55241077\n      eq\n      tag_5\n      jumpi\n      dup1\n      0xd09de08a\n      eq\n      tag_6\n      jumpi\n      dup1\n      0xd742cb01\n      eq\n      tag_7\n      jumpi\n    tag_2:\n      0x00\n      dup1\n      revert\n        /* \"contracts/artifacts/Calculator.sol\":381:457  function getValue() public view returns (uint) {... */\n    tag_3:\n      tag_8\n      tag_9\n      jump\t// in\n    tag_8:\n      mload(0x40)\n      tag_10\n      swap2\n      swap1\n      tag_11\n      jump\t// in\n    tag_10:\n      mload(0x40)\n      dup1\n      swap2\n      sub\n      swap1\n      return\n        /* \"contracts/artifacts/Calculator.sol\":198:288  function decrement() public returns (uint) {... */\n    tag_4:\n      tag_12\n      tag_13\n      jump\t// in\n    tag_12:\n      mload(0x40)\n      tag_14\n      swap2\n      swap1\n      tag_11\n      jump\t// in\n    tag_14:\n      mload(0x40)\n      dup1\n      swap2\n      sub\n      swap1\n      return\n        /* \"contracts/artifacts/Calculator.sol\":463:532  function setValue(uint _value) public {... */\n    tag_5:\n      tag_15\n      0x04\n      dup1\n      calldatasize\n      sub\n      dup2\n      add\n      swap1\n      tag_16\n      swap2\n      swap1\n      tag_17\n      jump\t// in\n    tag_16:\n      tag_18\n      jump\t// in\n    tag_15:\n      stop\n        /* \"contracts/artifacts/Calculator.sol\":99:192  function increment() public returns (uint){... */\n    tag_6:\n      tag_19\n      tag_20\n      jump\t// in\n    tag_19:\n      mload(0x40)\n      tag_21\n      swap2\n      swap1\n      tag_11\n      jump\t// in\n    tag_21:\n      mload(0x40)\n      dup1\n      swap2\n      sub\n      swap1\n      return\n        /* \"contracts/artifacts/Calculator.sol\":294:375  function square() public view returns (uint){... */\n    tag_7:\n      tag_22\n      tag_23\n      jump\t// in\n    tag_22:\n      mload(0x40)\n      tag_24\n      swap2\n      swap1\n      tag_11\n      jump\t// in\n    tag_24:\n      mload(0x40)\n      dup1\n      swap2\n      sub\n      swap1\n      return\n        /* \"contracts/artifacts/Calculator.sol\":381:457  function getValue() public view returns (uint) {... */\n    tag_9:\n        /* \"contracts/artifacts/Calculator.sol\":422:426  uint */\n      0x00\n        /* \"contracts/artifacts/Calculator.sol\":445:450  value */\n      dup1\n      sload\n        /* \"contracts/artifacts/Calculator.sol\":438:450  return value */\n      swap1\n      pop\n        /* \"contracts/artifacts/Calculator.sol\":381:457  function getValue() public view returns (uint) {... */\n      swap1\n      jump\t// out\n        /* \"contracts/artifacts/Calculator.sol\":198:288  function decrement() public returns (uint) {... */\n    tag_13:\n        /* \"contracts/artifacts/Calculator.sol\":235:239  uint */\n      0x00\n        /* \"contracts/artifacts/Calculator.sol\":259:260  1 */\n      0x01\n        /* \"contracts/artifacts/Calculator.sol\":250:255  value */\n      0x00\n      dup1\n        /* \"contracts/artifacts/Calculator.sol\":250:260  value -= 1 */\n      dup3\n      dup3\n      sload\n      tag_27\n      swap2\n      swap1\n      tag_28\n      jump\t// in\n    tag_27:\n      swap3\n      pop\n      pop\n      dup2\n      swap1\n      sstore\n      pop\n        /* \"contracts/artifacts/Calculator.sol\":276:281  value */\n      sload(0x00)\n        /* \"contracts/artifacts/Calculator.sol\":269:281  return value */\n      swap1\n      pop\n        /* \"contracts/artifacts/Calculator.sol\":198:288  function decrement() public returns (uint) {... */\n      swap1\n      jump\t// out\n        /* \"contracts/artifacts/Calculator.sol\":463:532  function setValue(uint _value) public {... */\n    tag_18:\n        /* \"contracts/artifacts/Calculator.sol\":519:525  _value */\n      dup1\n        /* \"contracts/artifacts/Calculator.sol\":511:516  value */\n      0x00\n        /* \"contracts/artifacts/Calculator.sol\":511:525  value = _value */\n      dup2\n      swap1\n      sstore\n      pop\n        /* \"contracts/artifacts/Calculator.sol\":463:532  function setValue(uint _value) public {... */\n      pop\n      jump\t// out\n        /* \"contracts/artifacts/Calculator.sol\":99:192  function increment() public returns (uint){... */\n    tag_20:\n        /* \"contracts/artifacts/Calculator.sol\":136:140  uint */\n      0x00\n        /* \"contracts/artifacts/Calculator.sol\":161:162  1 */\n      0x01\n        /* \"contracts/artifacts/Calculator.sol\":152:157  value */\n      0x00\n      dup1\n        /* \"contracts/artifacts/Calculator.sol\":152:162  value += 1 */\n      dup3\n      dup3\n      sload\n      tag_31\n      swap2\n      swap1\n      tag_32\n      jump\t// in\n    tag_31:\n      swap3\n      pop\n      pop\n      dup2\n      swap1\n      sstore\n      pop\n        /* \"contracts/artifacts/Calculator.sol\":180:185  value */\n      sload(0x00)\n        /* \"contracts/artifacts/Calculator.sol\":173:185  return value */\n      swap1\n      pop\n        /* \"contracts/artifacts/Calculator.sol\":99:192  function increment() public returns (uint){... */\n      swap1\n      jump\t// out\n        /* \"contracts/artifacts/Calculator.sol\":294:375  function square() public view returns (uint){... */\n    tag_23:\n        /* \"contracts/artifacts/Calculator.sol\":333:337  uint */\n      0x00\n        /* \"contracts/artifacts/Calculator.sol\":363:368  value */\n      dup1\n      sload\n        /* \"contracts/artifacts/Calculator.sol\":355:360  value */\n      sload(0x00)\n        /* \"contracts/artifacts/Calculator.sol\":355:368  value * value */\n      tag_34\n      swap2\n      swap1\n      tag_35\n      jump\t// in\n    tag_34:\n        /* \"contracts/artifacts/Calculator.sol\":348:368  return value * value */\n      swap1\n      pop\n        /* \"contracts/artifacts/Calculator.sol\":294:375  function square() public view returns (uint){... */\n      swap1\n      jump\t// out\n        /* \"#utility.yul\":7:84   */\n    tag_36:\n        /* \"#utility.yul\":44:51   */\n      0x00\n        /* \"#utility.yul\":73:78   */\n      dup2\n        /* \"#utility.yul\":62:78   */\n      swap1\n      pop\n        /* \"#utility.yul\":7:84   */\n      swap2\n      swap1\n      pop\n      jump\t// out\n        /* \"#utility.yul\":90:208   */\n    tag_37:\n        /* \"#utility.yul\":177:201   */\n      tag_47\n        /* \"#utility.yul\":195:200   */\n      dup2\n        /* \"#utility.yul\":177:201   */\n      tag_36\n      jump\t// in\n    tag_47:\n        /* \"#utility.yul\":172:175   */\n      dup3\n        /* \"#utility.yul\":165:202   */\n      mstore\n        /* \"#utility.yul\":90:208   */\n      pop\n      pop\n      jump\t// out\n        /* \"#utility.yul\":214:436   */\n    tag_11:\n        /* \"#utility.yul\":307:311   */\n      0x00\n        /* \"#utility.yul\":345:347   */\n      0x20\n        /* \"#utility.yul\":334:343   */\n      dup3\n        /* \"#utility.yul\":330:348   */\n      add\n        /* \"#utility.yul\":322:348   */\n      swap1\n      pop\n        /* \"#utility.yul\":358:429   */\n      tag_49\n        /* \"#utility.yul\":426:427   */\n      0x00\n        /* \"#utility.yul\":415:424   */\n      dup4\n        /* \"#utility.yul\":411:428   */\n      add\n        /* \"#utility.yul\":402:408   */\n      dup5\n        /* \"#utility.yul\":358:429   */\n      tag_37\n      jump\t// in\n    tag_49:\n        /* \"#utility.yul\":214:436   */\n      swap3\n      swap2\n      pop\n      pop\n      jump\t// out\n        /* \"#utility.yul\":523:640   */\n    tag_39:\n        /* \"#utility.yul\":632:633   */\n      0x00\n        /* \"#utility.yul\":629:630   */\n      dup1\n        /* \"#utility.yul\":622:634   */\n      revert\n        /* \"#utility.yul\":769:891   */\n    tag_41:\n        /* \"#utility.yul\":842:866   */\n      tag_54\n        /* \"#utility.yul\":860:865   */\n      dup2\n        /* \"#utility.yul\":842:866   */\n      tag_36\n      jump\t// in\n    tag_54:\n        /* \"#utility.yul\":835:840   */\n      dup2\n        /* \"#utility.yul\":832:867   */\n      eq\n        /* \"#utility.yul\":822:885   */\n      tag_55\n      jumpi\n        /* \"#utility.yul\":881:882   */\n      0x00\n        /* \"#utility.yul\":878:879   */\n      dup1\n        /* \"#utility.yul\":871:883   */\n      revert\n        /* \"#utility.yul\":822:885   */\n    tag_55:\n        /* \"#utility.yul\":769:891   */\n      pop\n      jump\t// out\n        /* \"#utility.yul\":897:1036   */\n    tag_42:\n        /* \"#utility.yul\":943:948   */\n      0x00\n        /* \"#utility.yul\":981:987   */\n      dup2\n        /* \"#utility.yul\":968:988   */\n      calldataload\n        /* \"#utility.yul\":959:988   */\n      swap1\n      pop\n        /* \"#utility.yul\":997:1030   */\n      tag_57\n        /* \"#utility.yul\":1024:1029   */\n      dup2\n        /* \"#utility.yul\":997:1030   */\n      tag_41\n      jump\t// in\n    tag_57:\n        /* \"#utility.yul\":897:1036   */\n      swap3\n      swap2\n      pop\n      pop\n      jump\t// out\n        /* \"#utility.yul\":1042:1371   */\n    tag_17:\n        /* \"#utility.yul\":1101:1107   */\n      0x00\n        /* \"#utility.yul\":1150:1152   */\n      0x20\n        /* \"#utility.yul\":1138:1147   */\n      dup3\n        /* \"#utility.yul\":1129:1136   */\n      dup5\n        /* \"#utility.yul\":1125:1148   */\n      sub\n        /* \"#utility.yul\":1121:1153   */\n      slt\n        /* \"#utility.yul\":1118:1237   */\n      iszero\n      tag_59\n      jumpi\n        /* \"#utility.yul\":1156:1235   */\n      tag_60\n      tag_39\n      jump\t// in\n    tag_60:\n        /* \"#utility.yul\":1118:1237   */\n    tag_59:\n        /* \"#utility.yul\":1276:1277   */\n      0x00\n        /* \"#utility.yul\":1301:1354   */\n      tag_61\n        /* \"#utility.yul\":1346:1353   */\n      dup5\n        /* \"#utility.yul\":1337:1343   */\n      dup3\n        /* \"#utility.yul\":1326:1335   */\n      dup6\n        /* \"#utility.yul\":1322:1344   */\n      add\n        /* \"#utility.yul\":1301:1354   */\n      tag_42\n      jump\t// in\n    tag_61:\n        /* \"#utility.yul\":1291:1354   */\n      swap2\n      pop\n        /* \"#utility.yul\":1247:1364   */\n      pop\n        /* \"#utility.yul\":1042:1371   */\n      swap3\n      swap2\n      pop\n      pop\n      jump\t// out\n        /* \"#utility.yul\":1377:1557   */\n    tag_43:\n        /* \"#utility.yul\":1425:1502   */\n      0x4e487b7100000000000000000000000000000000000000000000000000000000\n        /* \"#utility.yul\":1422:1423   */\n      0x00\n        /* \"#utility.yul\":1415:1503   */\n      mstore\n        /* \"#utility.yul\":1522:1526   */\n      0x11\n        /* \"#utility.yul\":1519:1520   */\n      0x04\n        /* \"#utility.yul\":1512:1527   */\n      mstore\n        /* \"#utility.yul\":1546:1550   */\n      0x24\n        /* \"#utility.yul\":1543:1544   */\n      0x00\n        /* \"#utility.yul\":1536:1551   */\n      revert\n        /* \"#utility.yul\":1563:1757   */\n    tag_28:\n        /* \"#utility.yul\":1603:1607   */\n      0x00\n        /* \"#utility.yul\":1623:1643   */\n      tag_64\n        /* \"#utility.yul\":1641:1642   */\n      dup3\n        /* \"#utility.yul\":1623:1643   */\n      tag_36\n      jump\t// in\n    tag_64:\n        /* \"#utility.yul\":1618:1643   */\n      swap2\n      pop\n        /* \"#utility.yul\":1657:1677   */\n      tag_65\n        /* \"#utility.yul\":1675:1676   */\n      dup4\n        /* \"#utility.yul\":1657:1677   */\n      tag_36\n      jump\t// in\n    tag_65:\n        /* \"#utility.yul\":1652:1677   */\n      swap3\n      pop\n        /* \"#utility.yul\":1701:1702   */\n      dup3\n        /* \"#utility.yul\":1698:1699   */\n      dup3\n        /* \"#utility.yul\":1694:1703   */\n      sub\n        /* \"#utility.yul\":1686:1703   */\n      swap1\n      pop\n        /* \"#utility.yul\":1725:1726   */\n      dup2\n        /* \"#utility.yul\":1719:1723   */\n      dup2\n        /* \"#utility.yul\":1716:1727   */\n      gt\n        /* \"#utility.yul\":1713:1750   */\n      iszero\n      tag_66\n      jumpi\n        /* \"#utility.yul\":1730:1748   */\n      tag_67\n      tag_43\n      jump\t// in\n    tag_67:\n        /* \"#utility.yul\":1713:1750   */\n    tag_66:\n        /* \"#utility.yul\":1563:1757   */\n      swap3\n      swap2\n      pop\n      pop\n      jump\t// out\n        /* \"#utility.yul\":1763:1954   */\n    tag_32:\n        /* \"#utility.yul\":1803:1806   */\n      0x00\n        /* \"#utility.yul\":1822:1842   */\n      tag_69\n        /* \"#utility.yul\":1840:1841   */\n      dup3\n        /* \"#utility.yul\":1822:1842   */\n      tag_36\n      jump\t// in\n    tag_69:\n        /* \"#utility.yul\":1817:1842   */\n      swap2\n      pop\n        /* \"#utility.yul\":1856:1876   */\n      tag_70\n        /* \"#utility.yul\":1874:1875   */\n      dup4\n        /* \"#utility.yul\":1856:1876   */\n      tag_36\n      jump\t// in\n    tag_70:\n        /* \"#utility.yul\":1851:1876   */\n      swap3\n      pop\n        /* \"#utility.yul\":1899:1900   */\n      dup3\n        /* \"#utility.yul\":1896:1897   */\n      dup3\n        /* \"#utility.yul\":1892:1901   */\n      add\n        /* \"#utility.yul\":1885:1901   */\n      swap1\n      pop\n        /* \"#utility.yul\":1920:1923   */\n      dup1\n        /* \"#utility.yul\":1917:1918   */\n      dup3\n        /* \"#utility.yul\":1914:1924   */\n      gt\n        /* \"#utility.yul\":1911:1947   */\n      iszero\n      tag_71\n      jumpi\n        /* \"#utility.yul\":1927:1945   */\n      tag_72\n      tag_43\n      jump\t// in\n    tag_72:\n        /* \"#utility.yul\":1911:1947   */\n    tag_71:\n        /* \"#utility.yul\":1763:1954   */\n      swap3\n      swap2\n      pop\n      pop\n      jump\t// out\n        /* \"#utility.yul\":1960:2370   */\n    tag_35:\n        /* \"#utility.yul\":2000:2007   */\n      0x00\n        /* \"#utility.yul\":2023:2043   */\n      tag_74\n        /* \"#utility.yul\":2041:2042   */\n      dup3\n        /* \"#utility.yul\":2023:2043   */\n      tag_36\n      jump\t// in\n    tag_74:\n        /* \"#utility.yul\":2018:2043   */\n      swap2\n      pop\n        /* \"#utility.yul\":2057:2077   */\n      tag_75\n        /* \"#utility.yul\":2075:2076   */\n      dup4\n        /* \"#utility.yul\":2057:2077   */\n      tag_36\n      jump\t// in\n    tag_75:\n        /* \"#utility.yul\":2052:2077   */\n      swap3\n      pop\n        /* \"#utility.yul\":2112:2113   */\n      dup3\n        /* \"#utility.yul\":2109:2110   */\n      dup3\n        /* \"#utility.yul\":2105:2114   */\n      mul\n        /* \"#utility.yul\":2134:2164   */\n      tag_76\n        /* \"#utility.yul\":2152:2163   */\n      dup2\n        /* \"#utility.yul\":2134:2164   */\n      tag_36\n      jump\t// in\n    tag_76:\n        /* \"#utility.yul\":2123:2164   */\n      swap2\n      pop\n        /* \"#utility.yul\":2313:2314   */\n      dup3\n        /* \"#utility.yul\":2304:2311   */\n      dup3\n        /* \"#utility.yul\":2300:2315   */\n      div\n        /* \"#utility.yul\":2297:2298   */\n      dup5\n        /* \"#utility.yul\":2294:2316   */\n      eq\n        /* \"#utility.yul\":2274:2275   */\n      dup4\n        /* \"#utility.yul\":2267:2276   */\n      iszero\n        /* \"#utility.yul\":2247:2330   */\n      or\n        /* \"#utility.yul\":2224:2363   */\n      tag_77\n      jumpi\n        /* \"#utility.yul\":2343:2361   */\n      tag_78\n      tag_43\n      jump\t// in\n    tag_78:\n        /* \"#utility.yul\":2224:2363   */\n    tag_77:\n        /* \"#utility.yul\":2008:2370   */\n      pop\n        /* \"#utility.yul\":1960:2370   */\n      swap3\n      swap2\n      pop\n      pop\n      jump\t// out\n\n    auxdata: 0xa26469706673582212203171496830dd112ac80f3a7d106bc557dc4687b8e41ba2177c3c5f5da0bdeabf64736f6c634300081a0033\n}\n",
				"bytecode": {
					"linkReferences": {},
					"object": "6080604052348015600e575f80fd5b506102e68061001c5f395ff3fe608060405234801561000f575f80fd5b5060043610610055575f3560e01c806320965255146100595780632baeceb7146100775780635524107714610095578063d09de08a146100b1578063d742cb01146100cf575b5f80fd5b6100616100ed565b60405161006e919061016a565b60405180910390f35b61007f6100f5565b60405161008c919061016a565b60405180910390f35b6100af60048036038101906100aa91906101b1565b610115565b005b6100b961011e565b6040516100c6919061016a565b60405180910390f35b6100d761013e565b6040516100e4919061016a565b60405180910390f35b5f8054905090565b5f60015f808282546101079190610209565b925050819055505f54905090565b805f8190555050565b5f60015f80828254610130919061023c565b925050819055505f54905090565b5f80545f5461014d919061026f565b905090565b5f819050919050565b61016481610152565b82525050565b5f60208201905061017d5f83018461015b565b92915050565b5f80fd5b61019081610152565b811461019a575f80fd5b50565b5f813590506101ab81610187565b92915050565b5f602082840312156101c6576101c5610183565b5b5f6101d38482850161019d565b91505092915050565b7f4e487b71000000000000000000000000000000000000000000000000000000005f52601160045260245ffd5b5f61021382610152565b915061021e83610152565b9250828203905081811115610236576102356101dc565b5b92915050565b5f61024682610152565b915061025183610152565b9250828201905080821115610269576102686101dc565b5b92915050565b5f61027982610152565b915061028483610152565b925082820261029281610152565b915082820484148315176102a9576102a86101dc565b5b509291505056fea26469706673582212203171496830dd112ac80f3a7d106bc557dc4687b8e41ba2177c3c5f5da0bdeabf64736f6c634300081a0033",
					"opcodes": "PUSH1 0x80 PUSH1 0x40 MSTORE CALLVALUE DUP1 ISZERO PUSH1 0xE JUMPI PUSH0 DUP1 REVERT JUMPDEST POP PUSH2 0x2E6 DUP1 PUSH2 0x1C PUSH0 CODECOPY PUSH0 RETURN INVALID PUSH1 0x80 PUSH1 0x40 MSTORE CALLVALUE DUP1 ISZERO PUSH2 0xF JUMPI PUSH0 DUP1 REVERT JUMPDEST POP PUSH1 0x4 CALLDATASIZE LT PUSH2 0x55 JUMPI PUSH0 CALLDATALOAD PUSH1 0xE0 SHR DUP1 PUSH4 0x20965255 EQ PUSH2 0x59 JUMPI DUP1 PUSH4 0x2BAECEB7 EQ PUSH2 0x77 JUMPI DUP1 PUSH4 0x55241077 EQ PUSH2 0x95 JUMPI DUP1 PUSH4 0xD09DE08A EQ PUSH2 0xB1 JUMPI DUP1 PUSH4 0xD742CB01 EQ PUSH2 0xCF JUMPI JUMPDEST PUSH0 DUP1 REVERT JUMPDEST PUSH2 0x61 PUSH2 0xED JUMP JUMPDEST PUSH1 0x40 MLOAD PUSH2 0x6E SWAP2 SWAP1 PUSH2 0x16A JUMP JUMPDEST PUSH1 0x40 MLOAD DUP1 SWAP2 SUB SWAP1 RETURN JUMPDEST PUSH2 0x7F PUSH2 0xF5 JUMP JUMPDEST PUSH1 0x40 MLOAD PUSH2 0x8C SWAP2 SWAP1 PUSH2 0x16A JUMP JUMPDEST PUSH1 0x40 MLOAD DUP1 SWAP2 SUB SWAP1 RETURN JUMPDEST PUSH2 0xAF PUSH1 0x4 DUP1 CALLDATASIZE SUB DUP2 ADD SWAP1 PUSH2 0xAA SWAP2 SWAP1 PUSH2 0x1B1 JUMP JUMPDEST PUSH2 0x115 JUMP JUMPDEST STOP JUMPDEST PUSH2 0xB9 PUSH2 0x11E JUMP JUMPDEST PUSH1 0x40 MLOAD PUSH2 0xC6 SWAP2 SWAP1 PUSH2 0x16A JUMP JUMPDEST PUSH1 0x40 MLOAD DUP1 SWAP2 SUB SWAP1 RETURN JUMPDEST PUSH2 0xD7 PUSH2 0x13E JUMP JUMPDEST PUSH1 0x40 MLOAD PUSH2 0xE4 SWAP2 SWAP1 PUSH2 0x16A JUMP JUMPDEST PUSH1 0x40 MLOAD DUP1 SWAP2 SUB SWAP1 RETURN JUMPDEST PUSH0 DUP1 SLOAD SWAP1 POP SWAP1 JUMP JUMPDEST PUSH0 PUSH1 0x1 PUSH0 DUP1 DUP3 DUP3 SLOAD PUSH2 0x107 SWAP2 SWAP1 PUSH2 0x209 JUMP JUMPDEST SWAP3 POP POP DUP2 SWAP1 SSTORE POP PUSH0 SLOAD SWAP1 POP SWAP1 JUMP JUMPDEST DUP1 PUSH0 DUP2 SWAP1 SSTORE POP POP JUMP JUMPDEST PUSH0 PUSH1 0x1 PUSH0 DUP1 DUP3 DUP3 SLOAD PUSH2 0x130 SWAP2 SWAP1 PUSH2 0x23C JUMP JUMPDEST SWAP3 POP POP DUP2 SWAP1 SSTORE POP PUSH0 SLOAD SWAP1 POP SWAP1 JUMP JUMPDEST PUSH0 DUP1 SLOAD PUSH0 SLOAD PUSH2 0x14D SWAP2 SWAP1 PUSH2 0x26F JUMP JUMPDEST SWAP1 POP SWAP1 JUMP JUMPDEST PUSH0 DUP2 SWAP1 POP SWAP2 SWAP1 POP JUMP JUMPDEST PUSH2 0x164 DUP2 PUSH2 0x152 JUMP JUMPDEST DUP3 MSTORE POP POP JUMP JUMPDEST PUSH0 PUSH1 0x20 DUP3 ADD SWAP1 POP PUSH2 0x17D PUSH0 DUP4 ADD DUP5 PUSH2 0x15B JUMP JUMPDEST SWAP3 SWAP2 POP POP JUMP JUMPDEST PUSH0 DUP1 REVERT JUMPDEST PUSH2 0x190 DUP2 PUSH2 0x152 JUMP JUMPDEST DUP2 EQ PUSH2 0x19A JUMPI PUSH0 DUP1 REVERT JUMPDEST POP JUMP JUMPDEST PUSH0 DUP2 CALLDATALOAD SWAP1 POP PUSH2 0x1AB DUP2 PUSH2 0x187 JUMP JUMPDEST SWAP3 SWAP2 POP POP JUMP JUMPDEST PUSH0 PUSH1 0x20 DUP3 DUP5 SUB SLT ISZERO PUSH2 0x1C6 JUMPI PUSH2 0x1C5 PUSH2 0x183 JUMP JUMPDEST JUMPDEST PUSH0 PUSH2 0x1D3 DUP5 DUP3 DUP6 ADD PUSH2 0x19D JUMP JUMPDEST SWAP2 POP POP SWAP3 SWAP2 POP POP JUMP JUMPDEST PUSH32 0x4E487B7100000000000000000000000000000000000000000000000000000000 PUSH0 MSTORE PUSH1 0x11 PUSH1 0x4 MSTORE PUSH1 0x24 PUSH0 REVERT JUMPDEST PUSH0 PUSH2 0x213 DUP3 PUSH2 0x152 JUMP JUMPDEST SWAP2 POP PUSH2 0x21E DUP4 PUSH2 0x152 JUMP JUMPDEST SWAP3 POP DUP3 DUP3 SUB SWAP1 POP DUP2 DUP2 GT ISZERO PUSH2 0x236 JUMPI PUSH2 0x235 PUSH2 0x1DC JUMP JUMPDEST JUMPDEST SWAP3 SWAP2 POP POP JUMP JUMPDEST PUSH0 PUSH2 0x246 DUP3 PUSH2 0x152 JUMP JUMPDEST SWAP2 POP PUSH2 0x251 DUP4 PUSH2 0x152 JUMP JUMPDEST SWAP3 POP DUP3 DUP3 ADD SWAP1 POP DUP1 DUP3 GT ISZERO PUSH2 0x269 JUMPI PUSH2 0x268 PUSH2 0x1DC JUMP JUMPDEST JUMPDEST SWAP3 SWAP2 POP POP JUMP JUMPDEST PUSH0 PUSH2 0x279 DUP3 PUSH2 0x152 JUMP JUMPDEST SWAP2 POP PUSH2 0x284 DUP4 PUSH2 0x152 JUMP JUMPDEST SWAP3 POP DUP3 DUP3 MUL PUSH2 0x292 DUP2 PUSH2 0x152 JUMP JUMPDEST SWAP2 POP DUP3 DUP3 DIV DUP5 EQ DUP4 ISZERO OR PUSH2 0x2A9 JUMPI PUSH2 0x2A8 PUSH2 0x1DC JUMP JUMPDEST JUMPDEST POP SWAP3 SWAP2 POP POP JUMP INVALID LOG2 PUSH5 0x6970667358 0x22 SLT KECCAK256 BALANCE PUSH18 0x496830DD112AC80F3A7D106BC557DC4687B8 0xE4 SHL LOG2 OR PUSH29 0x3C5F5DA0BDEABF64736F6C634300081A00330000000000000000000000 "
				},
				"gasEstimates": {
					"creation": {
						"codeDepositCost": "148400",
						"executionCost": "194",
						"totalCost": "148594"
					},
					"external": {
						"decrement()": "infinite",
						"getValue()": "2410",
						"increment()": "infinite",
						"setValue(uint256)": "22536",
						"square()": "infinite"
					}
				},
				"methodIdentifiers": {
					"decrement()": "2baeceb7",
					"getValue()": "20965255",
					"increment()": "d09de08a",
					"setValue(uint256)": "55241077",
					"square()": "d742cb01"
				}
			},
			"storageLayout": {
				"storage": [
					{
						"astId": 3,
						"contract": "contracts/artifacts/Calculator.sol:Calculator",
						"label": "value",
						"offset": 0,
						"slot": "0",
						"type": "t_uint256"
					}
				],
				"types": {
					"t_uint256": {
						"encoding": "inplace",
						"label": "uint256",
						"numberOfBytes": "32"
					}
				}
			},
			"userdoc": {
				"kind": "user",
				"methods": {},
				"version": 1
			}
		}
	}
}